:020000040800F2
:1000000000800120090300089502000897020008FB
:10001000990200089B0200089D02000800000000F1
:100020000000000000000000000000009F02000827
:10003000A102000800000000A3020008A5020008B9
:100040005903000859030008590300085903000820
:100050005903000859030008590300085903000810
:100060005903000859030008590300085903000800
:1000700059030008590300085903000859030008F0
:1000800059030008590300085903000859030008E0
:1000900059030008590300085903000859030008D0
:1000A00059030008590300085903000859030008C0
:1000B00059030008590300085903000859030008B0
:1000C00059030008590300085903000859030008A0
:1000D0005903000859030008590300085903000890
:1000E0005903000859030008590300085903000880
:1000F0005903000859030008590300085903000870
:10010000590300085903000859030008590300085F
:10011000590300085903000859030008590300084F
:10012000590300085903000859030008590300083F
:10013000590300085903000859030008590300082F
:10014000590300085903000859030008590300081F
:10015000590300085903000859030008590300080F
:1001600059030008590300085903000859030008FF
:100170005903000859030008590300080000000053
:080180005903000859030008AF
:1001880010B5054C237833B9044B13B10448AFF3C9
:1001980000800123237010BD3804002000000000F7
:1001A8007C04000808B5034B1BB103490348AFF3AF
:1001B800008008BD000000003C0400207C0400080A
:1001C800134BDA6C42F00102DA64DA6C42F0040292
:1001D800DA64104B1A6822F040621A60DA6822F07A
:1001E8004062DA604FF090434FF400129A611A6847
:1001F80022F440621A601A6842F480621A609A68AF
:1002080022F440629A60DA6822F44062DA60704749
:10021800001002400008004882B000230193019BAF
:10022800013301934FF4C87200FB02F29342F6D3F4
:1002380002B0704738B5FFF7C3FF012400E001247E
:1002480001340F4B1B6913F4005F02D0642CF6DCF9
:10025800F6E74FF09042536983F0200353611E2064
:10026800FFF7DAFF064B1B6913F4005FFAD0A0B260
:10027800FFF7D2FF034B044D0FCB07C52B70E5E703
:10028800000800489804000854040020FEE7FEE730
:10029800FEE7FEE7FEE770477047704708B500F0D5
:1002A80023F808BD0E4AD2F8883043F47003C2F828
:1002B80088300C4B1A6842F001021A6000219960DC
:1002C8001A6822F0A85222F410221A604FF48052C1
:1002D800DA601A6822F480221A609961704700BFB8
:1002E80000ED00E000100240034B1B78034A116840
:1002F8000B441360704700BF00000020B8040020C2
:10030800DFF834D0FFF7CEFF002103E00B4B5B583A
:10031800435004310A480B4B42189A42F6D30A4A12
:1003280002E0002342F8043B084B9A42F9D300F05C
:100338002DF8FFF77FFFFEE700800120C0040008CA
:10034800000000203804002038040020C0040020E9
:10035800FEE70000002301461A46184600F03AB8A6
:1003680038B5084B084D5B1B9C1007D0043B1D4457
:10037800013C55F804399847002CF9D1BDE83840BC
:1003880000F07EB8BC040008B804000870B50D4E33
:100398000D4D761BB61006D0002455F8043B0134E9
:1003A8009847A642F9D1094E094D761B00F062F82C
:1003B800B61006D0002455F8043B01349847A642ED
:1003C800F9D170BDB0040008B0040008B8040008F2
:1003D800B00400082DE9F8431D4D064628689846E4
:1003E8000F46914600F042F81A4B1B68D3F8484173
:1003F8001CB3286865681F2D24DC4EB96B1C0235B8
:10040800636044F8257000F033F80020BDE8F883F5
:1004180004EB85010123C1F88890D4F88821AB400A
:100428001A43022EC4F88821C1F80881E6D1D4F80D
:100438008C211343C4F88C31E0E703F5A674C3F8A4
:100448004841D6E700F014F84FF0FF30DEE700BF70
:1004580030040020A8040008024B13B10248FFF73B
:1004680079BF70470000000069030008704700BFAB
:10047800704700BFF8B500BFF8BC08BC9E4670477F
:10048800F8B500BFF8BC08BC9E46704700000000E5
:1004980048656C6C6F20576F726C640A000000002E
:0804A800080000200000000024
:0804B00061040008AD01000821
:0804B8008901000800000000AA
:1004C000010000000000000000000000F402002015
:1004D0005C030020C40300200000000000000000B6
:1004E000000000000000000000000000000000000C
:1004F00000000000000000000000000000000000FC
:1005000000000000000000000000000000000000EB
:1005100000000000000000000000000000000000DB
:1005200000000000000000000000000000000000CB
:1005300000000000000000000000000000000000BB
:1005400000000000000000000000000000000000AB
:10055000000000000000000000000000000000009B
:10056000000000000000000000000000000000008B
:1005700001000000000000000E33CDAB34126DE628
:10058000ECDE05000B000000000000000000000091
:10059000000000000000000000000000000000005B
:1005A000000000000000000000000000000000004B
:1005B000000000000000000000000000000000003B
:1005C000000000000000000000000000000000002B
:0808F000BC0400200000000020
:0400000508000309E3
:00000001FF
